:020000040040BA
:1000000030390020B5254000410040004300400049
:10001000450040004700400049004000000000004B
:100020000000000000000000000000004B00400045
:100030004D004000000000004F0040005100400013
:1000400007E007E007E007E007E007E007E007E078
:1000500007E007E006E005E004E003E002E001E07D
:1000600000E0FFE7FFB44046494652465B4664461F
:100070001FB469460E4A0D2301250C680431146033
:100080000432013B002BF8D1103104230DB1013DA6
:10009000F3E710391160EFF3058003F01DFA1FBC80
:1000A0008046894692469B46A446FFBC70470000A6
:1000B0003C1E002008B5034BD861034801688847FF
:1000C00008BD00BFE8000020B8090020074B08B1B8
:1000D000196207E083F8200083F8210083F82200EA
:1000E00083F82300024800F0E3BE00BFE8000020D0
:1000F000F5004000074B08B1596207E083F824007F
:1001000083F8250083F8260083F82700024800F0D2
:10011000F9BE00BFE8000020B500400008B500F0BF
:1001200099FE00F0C1FEBDE8084000F0E7BE08B54A
:1001300000F092FE00F0BAFEBDE8084000F0E0BE1C
:10014000024B1860024800F089BE00BFB8090020C9
:10015000CD004000014B00221A707047BC090020FE
:10016000024B00221A7000F015BC00BFBC09002031
:10017000024B02221A7000F00DBC00BFBC09002027
:1001800008B5044B01221A70FFF7D1FFBDE8084003
:1001900000F000BCBC09002030B51D4985B00190BD
:1001A000D0F80140D0F80550D1F80120D1F8053041
:1001B0009D4208BF944227D0002404A840F8044D73
:1001C00001A9144A00F0D8F9F8B121463822039861
:1001D00012F0C8F8039B01200199032558831D7173
:1001E000D1F80150D1F805100D22596193F828106B
:1001F0001A8441F00C021D6118769883987783F871
:10020000282083F8294000E0012005B030BD00BF60
:10021000E80000206903400010B5044600F0FFF834
:100220002046362100F088FD012010BD7FB5294E03
:100230000190D0F80140D0F80550D6F80120D6F84A
:10024000053001469D4208BF944219D1B0F809001B
:10025000B1F80B1000F0FAFB019811230021417056
:100260000370D6F80120D6F805300A21C0F8022024
:10027000C0F8063000F060FD00F0D1F8012026E063
:10028000002404A840F8044D01A9134A00F074F9B1
:10029000E8B121463822039812F064F8039B01204C
:1002A0000199032558831D71D1F80150D1F805102B
:1002B0000D22596193F828101A8441F00C021D6137
:1002C00018769883987783F8282083F8294004B01B
:1002D00070BD00BFE80000206903400013B51D4C4D
:1002E0002378052B35D8DFE803F0240B03341E22D6
:1002F00000F03CFBFFF712FF1748FFF721FF28E053
:1003000002A8002140F8041D00F09CF938B10198C2
:10031000012200F8012B1149352211F09DFE0D4BF1
:100320000420187013E00E4802F0A0FA11E0002338
:100330000CE000F013FC0A4802F0B6FA094842F259
:1003400010710122E160227460610223237000F0C9
:1003500021FB1CBDBC09002081014000E8000020F9
:10036000C00900207101400008B590F82030102B22
:1003700014D1112190F88820836E80F82010C16E6E
:1003800080F82120C0F82230C0F8261020300A2141
:1003900000F0D2FCBDE8084000F041B808BD000004
:1003A000064B1821064A03610175064B0649426057
:1003B000002203608160C260704700BFD00000204F
:1003C00055014000DD0240006101400000F0B6BC74
:1003D00008B5002000F0E8FC012000F0D3FC02206A
:1003E000BDE8084000F0CEBC08B5002000F0B8FC25
:1003F000012000F0C7FC0220BDE8084000F0C2BCAC
:10040000022000F0BFBC022000F0BCBC022000F0C3
:10041000A7BC022000F0B6BC012000F0C5BC022041
:1004200000F0C2BC08B500F089FC0020BDE808401F
:1004300000F096BC002000F0B7BC0000027810B5B8
:10044000174B12B91A7202240CE0197A4C1CE2B252
:10045000032A1A724FF0000102D859721C1D03E0E2
:10046000197203245C721C460D4BA0F19001DA68EE
:100470008A4206D103F10C000BF052FF014607E05F
:100480001A46136823B18B42FAD150F8900C1060D1
:1004900020460BF06AFFBDE8104000F0B3BA00BF81
:1004A000D809002038B50A4C0023254645F8103BF2
:1004B000284604F11801637263602361E3600BF066
:1004C00054FF284604F1B801BDE838400BF04DBF99
:1004D000D809002038B5254C637A1BB1981E012835
:1004E00043D818E06568002D3FD0FFF78FFF204903
:1004F00005F12802C5F88C10C5F8842005F16000CC
:1005000003F088FE201D0BF00BFF014604F10C00E8
:100510000BF02BFF25E0246804B10834ECB1D4F8CB
:10052000901009B120468847104DA4F108012B68AE
:1005300028468B4204D10BF0F3FE014607E0134638
:100540001A6822B18A42FAD154F8084C1C60094852
:100550000BF00BFF2C68002CDFD1FFF75AFF03488C
:100560004472BDE8384000F04DBA38BDD8090020CB
:100570003D044000E80900202DE9F041144D0646F5
:100580002C690F469046F4B105F110000BF0C8FE3F
:100590000146281D0BF0E9FE396821B104F128005D
:1005A000362211F059FD316821B104F16000382282
:1005B00011F052FD04F1280304F160003B6030604B
:1005C000C4F89880012400F01DFA2046BDE8F081AF
:1005D000D8090020074B10B500241C605C60064859
:1005E0003C21021D01FB042101340BF0BEFE042C52
:1005F000F5D110BD300B0020340B002037B50F4C67
:100600002368CBB1684619791D1D00F037FA28B967
:100610000A480BF085FE0146094809E02846019981
:1006200088470028F4D120460BF07AFE0146204688
:100630000BF09BFE00F0CAF93EBD00BF300B00205E
:10064000340B002070B50C4D06466C687CB1281D3B
:100650000BF066FE014628460BF087FE316819B1A3
:10066000201D362211F0F8FC04343460012400F01F
:10067000ADF9204670BD00BF300B002007B501A8C2
:1006800000F06EFF044B1A8890B240F4806101A81C
:10069000198000F06CFF0EBD40100020437C1BB998
:1006A0000248042202707047FFF7E8BF280C0020C0
:1006B000FFF78EBE13B5C36B02AC44F8043DFFF7E1
:1006C000ABFE2046FFF7BEFF1CBD000010B50A4C74
:1006D000FFF7B0FE6288E3689A4238BF1346D01A2B
:1006E00081B2618031B9FFF79DFE201DBDE8104049
:1006F00002F0DAB810BD00BF280C002038B5104D4C
:100700000446002305F11C002B7602F0CDF8A07CF6
:1007100090B902212970FFF767FEAA6B02B19047DA
:10072000A088084BA3F813006188A3F80910228A57
:10073000DA822078587538BDBDE83840FFF79EBF93
:10074000280C0020E80000207FB5584C2378032BAC
:1007500000F2AB80DFE803F002704883FFF736FE5B
:100760005348FFF71DFE002504A901F8095D20206C
:1007700000F0D3FE4F4E9DF807000123307094F82F
:100780004D204D4863F303024C4984F84D2084F812
:10079000493084F84B30206684F84A50103084F891
:1007A0004C5084F84830616603F03EFF4FF4FA7015
:1007B000434B606202A9284684F82850E36200F0A7
:1007C00099FE029A0399C6F80120C6F80510606BDD
:1007D00000B18047FFF766FEFFF7FCFE334B0122B6
:1007E0001A70FFF74BFF60E094F86C402F48E10768
:1007F00006D5026B6FF3000480F86C4002B190479D
:100800002A4C94F86C3003F00401C8B228B16FF39D
:10081000820384F86C30FFF75DFE94F86C3003F0CF
:100820000202D1B2002940D020486FF3410380F882
:100830006C30FFF7E3FE38E0FFF7CAFD237E1B4D67
:100840002BB905F11C0002F011F801222A76174895
:100850001C49C0F8901070300CF068FE25E0FFF7DE
:10086000CFFD01221848002384F8A2200022C4E909
:100870002A2394F8D03094F8D9203421C4F81801F0
:100880000020A4F8A010C4F8D030C1B202F07F0359
:10089000C4F8D41043F0400160F3050184F8D80097
:1008A00084F8D91009480CF0E1FE7FBD280C002027
:1008B000580C0020E8000020700C0020B506400015
:1008C000B1064000FD0640009D064000C00C00201F
:1008D00010B50378502B3CD08E3B032B39D8DFE882
:1008E00003F00F0F02061B4B0421197010BDFFF718
:1008F0008AFD184801220270BDE81040FFF7BEBE15
:10090000C288154CA4F80920B0F803100022A4F8FE
:100910001310B0F80130E382407960750D4C04F19A
:100920001C00227601F0C0FFFFF75EFD217801294F
:1009300002D1A36B03B1984722780648042A06D156
:10094000836B0221017003B19847FFF797FE0220E5
:10095000207010BD280C0020E800002008B5024BD4
:10096000D86B00B1804708BD280C002013B5084C97
:1009700002A8A37DE27D43EA022120F8041D0CF0C9
:100980002EFC9DF806009DF80730207663761CBD8E
:10099000E80000200B4B07B51A78022A11D193F812
:1009A0006C0040F0010183F86C1001A800F0D8FD44
:1009B000054B1A8890B240F4806101A8198000F0BC
:1009C000D6FD0EBD280C0020401000200B4B07B5B3
:1009D0001A78022A11D193F86C0040F0020183F8D2
:1009E0006C1001A800F0BCFD054B1A8890B240F4D1
:1009F000806101A8198000F0BAFD0EBD280C00200E
:100A0000401000200B4B07B51A78022A11D193F839
:100A10006C0040F0040183F86C1001A800F0A0FD08
:100A2000054B1A8890B240F4806101A8198000F04B
:100A30009EFD0EBD280C00204010002007B502AB23
:100A400043F8040D1846FFF7FDFD0EBD38B50D4601
:100A500078B171B1074C6080201D01F025FF064878
:100A600000236061201DE5602374BDE8384001F07B
:100A7000FDBE38BD280C0020CD064000104B70B5DF
:100A80000546186C0E4630B928460021082211F0A0
:100A900069FC002070BD0024094991F84420A2425D
:100AA000F2D90B6C0822284603EBC40111F0D4FAEA
:100AB0002878B04202D00134E4B2EDE7012070BDE5
:100AC000280C00207047704708B50BF0CBFD0BF0E9
:100AD0009FFDFCE710B5064C04F1C40001F0E4FEF4
:100AE0000022234603F8482B636084F8C32010BD1E
:100AF000A00D0020FFF7EEBF10B50A4C7C2294F841
:100B0000543104F1D8015343E21804F5AC70C9180C
:100B100092F8532100F07EFA013002D1002084F8CF
:100B2000560110BDA00D00200B4B93F856215AB171
:100B3000501E93F8542183F85601511C11F0FF0008
:100B400008BF024683F85421034B93F856210AB19B
:100B5000FFF7D2BF704700BFA00D002038B51E4C74
:100B60000523C4F86431C0224FF40063682184F87F
:100B70006C21A4F86E3104F10800184B184A0025C6
:100B8000A4F86A11C4F87801402104F5AC70A4F807
:100B90007C11C4F88821C4F88C31A4F8685184F819
:100BA0009051A4F87051C4F88051A4F8845100F019
:100BB00009FA0C4A0120642184F8D000C4F8CC1052
:100BC000C4F8D420FFF786FF04F1D80029467F221D
:100BD000BDE8384011F0C6BBA00D0020290B400035
:100BE000410C4000F50A400070B5144B93F85621B3
:100BF00002BB3B291ED893F85551012483F8564176
:100C00007C2603F1D80406FB0544FF2D08BF83F8BA
:100C100055210023DAB28A4203D2C25CE254013386
:100C2000F8E7064884F87B1090F8561121B1FFF7D9
:100C300063FF01E0002070BD012070BDA00D002009
:100C400073B50646002E69D0384C2378052B6BD03F
:100C5000012204F5AC700DF1070100F0A1FA0028A3
:100C600002DC052323705FE02078013EB6B2042841
:100C700038D8DFE800F0031F0D182E009DF807009C
:100C80004FF0000310282DD184F8C330022206E073
:100C90009DF807004FF00003022802D103222270C2
:100CA00022E0237020E09DF807504FF00103102D43
:100CB0001AD10CE09DF80710102903D103252570E7
:100CC000012412E0032901D1042300E0052323704D
:100CD00008E0174861680B1AD9B2FFF7AFFEFFF7BB
:100CE000F9FE21E0002400E01C46104D02A895F812
:100CF000C31010F8012D5318012185F8C330FFF7F8
:100D000073FF002C9ED0686805F1C302904299D20F
:100D10009DF8071000F8011B686093E7054801F093
:100D2000C3FD044801F0A2FD7CBD00BFA00D002062
:100D3000E80D0020640E002001207047074B4FF49F
:100D400000204FF400314FF48022186119611A61BC
:100D50001863196300201A63704700BF000E0E402D
:100D6000012808D004D3022809D14FF4802204E0DE
:100D70004FF4002201E04FF40032014B5A637047F8
:100D8000000E0E40012808D004D3022809D14FF4E8
:100D9000802204E04FF4002201E04FF40032014BC6
:100DA0001A637047000E0E40012810D008D30228A5
:100DB00017D10C4B4FF480209A6B12F4802F0CE06B
:100DC000084B4FF40020996B11F4002F05E0054B00
:100DD0004FF400309A6B12F4003F01D05863704713
:100DE00018637047000E0E4013B5184C2378DB07CC
:100DF00005D5207800F0FE01217000F04BF8227834
:100E0000124B02F00204E0B228B1197801F0FD02A1
:100E10001A7000F069F80D4C237803F00400C1B299
:100E200029B1227802F0FB03237000F087F82078C4
:100E300058B101A800F094FB05490A8893B243F425
:100E40008070088001A800F092FB1CBD340F0020C8
:100E500040100020002070470020704707B50A4B63
:100E600018600A48027842F00101017001A800F000
:100E700077FB074B188882B242F4807101A8198071
:100E800000F075FB00200EBD78100020340F00200C
:100E90004010002008B5034B01201A68002190473C
:100EA00008BD00BF78100020002070470020704768
:100EB00007B50A4B18600A48027842F00201017037
:100EC00001A800F04DFB074B188882B242F48071F4
:100ED00001A8198000F04BFB00200EBD7C10002003
:100EE000340F00204010002008B5034B01201A6881
:100EF0000021904708BD00BF7C10002000207047F3
:100F00000020704707B50A4B18600A48027842F083
:100F10000401017001A800F023FB074B188882B27E
:100F200042F4807101A8198000F021FB00200EBD61
:100F300074100020340F00204010002008B5024B30
:100F400000201968884708BD741000201B4B37B576
:100F500018680488816A4588A4B2ADB2D9B1121963
:100F600094B2828D944208D0AC4210D007D90023AD
:100F7000009302200919121B06E0DDB100240020B5
:100F80000090091902202A1B0D4B02F065F80B4A4C
:100F900013681C8010E012F03F0107D132B10091BC
:100FA00002200A46064B02F057F805E0416B19B1E2
:100FB000884701E02C46EAE73EBD00BF380F00201D
:100FC0004D0F400010B50446C8B1C368052B16D1BB
:100FD0000C4A106898B9A18C0B4BA0801460E0807B
:100FE000198020806080094801F0FEFF02F0DEF8E1
:100FF000022802D0064802F0B1F8E06810BD4FF0B8
:10100000FF3010BD380F0020801000204914400030
:10101000891000202D4B2DE9F3411D6888466E880C
:101020002B881446B6B29BB210B94FF0FF304AE09D
:101030008542FAD10029F8D0002AF6D0A86A38B93A
:101040000090234B022002F007F800283AD0ECE78A
:10105000B34205D99B1B9BB29342E6D380191EE095
:10106000AF8DBF1BBFB2FB189BB29342DDD3BA4218
:10107000304414D93A4610F0EFFFE41B00210091F0
:101080003A464146124BA4B2022001F0E5FFA86A9D
:1010900008EB0701224610F0DFFF26460BE010F0B8
:1010A000DBFF00220092022041462246084B01F05D
:1010B000D3FFA619B6B20549A88D0B68B04208BF88
:1010C00000265E802046BDE8FC8100BF380F00206E
:1010D0004D0F4000204B73B51B68204A9D88DC886B
:1010E000ADB2A4B2A54216880DD2988C4FF0000282
:1010F000011B3F2904DC2646002D2CD0144602E0BB
:10110000196A00921AE0AC4212D19D8C281B40282B
:10111000B8BF2E46ACBF254600251C6A00230093AD
:101120006119012040220E4B01F0BEFF2C460BE05E
:10113000281B3F280FDD0022196A0092012009199F
:101140004022074B01F0B0FF28B9034903480A6861
:1011500006809580D4807CBD380F00208010002050
:101160006511400008B50C4B1B68D988521890B225
:10117000D8809988D8888AB21B6B084980B20988C0
:101180004BB1904238BF0818821A90B29847BDE818
:101190000840FFF79FBF08BD380F002080100020D7
:1011A0002DE9F84F344B0E46196815468C88334AA2
:1011B000B1F80690A4B21FFA89F9B2F800B000287D
:1011C00055D0814253D1002E51D0002D4FD04FF039
:1011D0000008A1453CD04C45DFF89CA014D2DAF8B9
:1011E0000000C4EB0907016ABFB2AF423046214498
:1011F00005D92A462C1910F02FFFA4B210E03A4668
:1012000010F02AFF4C4624E067195F450ADADAF845
:1012100000203046136A2A46191910F01DFFBCB28F
:101220002F4616E0DAF80000C4EB0B08036A1FFA39
:1012300088F819193046424610F00EFFDAF800100F
:10124000C8EB05054644ADB2B1F824B00024C0E7B0
:101250000027094A0948136847449C80A3F8069070
:10126000A0F800B0FFF736FFB8B2BDE8F88F4FF036
:10127000FF30BDE8F88F00BF380F0020801000203D
:1012800000F047B807B509496FF03D0300204B70E7
:10129000012208238A708B710870C8700871487128
:1012A00007220090034601F0D7FE0EBD82100020F9
:1012B00007B500281DD04378212B0BD0222B0ED050
:1012C0000020202B10D100900B4907220B4B01F07E
:1012D000EBFE0EE003B05DF804EBFFF7D3BF03B005
:1012E0005DF804EB00F015B803B05DF804EB01F015
:1012F00005BF03B000BD00BF821000208112400076
:1013000030B1818809B9FFF7D3BF002001F0F6BEE4
:10131000704707B50020009001460246034601F0E1
:101320009BFE0EBD08B501F009FFBDE80840FFF7C0
:10133000F0BF000007B50138062823D8DFE800F029
:101340000406092222222200114905E011494B8896
:1013500003E0012907D110490B78002000909A4240
:1013600028BF1A4609E069B90B4B197891423CBF76
:101370000A490A78002009490090034601F06CFEF2
:1013800003B000BD002003B05DF804EB01F0B6BE71
:1013900049254100F02441001D0100203325410072
:1013A0001FB5034600283FD04278501F042838D884
:1013B000DFE800F00A0337151F005988DA88080AA9
:1013C000C9B2FFF7B7FF2FE05B88184803F07F0230
:1013D00002800090002001460246154B06E00020E6
:1013E00004A901F8010D01220090034601F034FE2A
:1013F0001AE05988C8B2FFF795FF0E4801F000FEC9
:101400000D4801F0FDFD0D4801F0FAFD0C4B0022E6
:10141000196800920120096A40220A4B01F044FE3B
:1014200002E01846FFF76CFF05B000BD3C0F00203E
:101430001D31400015254100252541002C25410086
:10144000380F002065114000014801F0D3BD00BFF6
:10145000A113400010B5164C00214822204610F080
:1014600081FF0A220023C4E90A23052384F83230CD
:10147000104C90222146104810F0EEFD04F190012E
:1014800038220E4810F0E8FD04F1C80102220C4891
:1014900010F0E2FD04F1D00150220A4810F0DCFD0A
:1014A000094800214FF43562BDE8104010F05ABFE2
:1014B000281C002038010020C01C0020F01B002048
:1014C000E81B0020701C00209810002037B5074B47
:1014D000044603EBC1016846082210F0BDFD9DE8FB
:1014E00003006D4684E8030020463EBD58020020FC
:1014F000FFF7B0BF37B505460C4661B168462946CF
:10150000FFF7E4FF0099BDF80420204603B0BDE8D2
:10151000304010F0A1BD03B030BD13B503460C46FA
:1015200079B127280DD868461946FFF7CFFFBDF8D7
:10153000042032B10098214602B0BDE8104010F0FE
:101540008BBD02B010BD13B503460C466846194664
:10155000FFF7BCFFBDF8040008B9009921601CBD6D
:1015600010B5044600F008F8206072B610BD08B54A
:10157000006800F004F808BDEFF31080704780F3B6
:1015800010887047FEE700000B4B13B51A6801ACDA
:1015900080181860094B20461A6842F001021A6050
:1015A000FFF7DEFF064B20461A8892B242F0020295
:1015B0001A80FFF7DCFF1CBD400F0020840F0020C5
:1015C0004010002073B50B4C01AD2846FFF7C8FF53
:1015D0000023267928462371FFF7C9FF0A235E43BB
:1015E0002368F318B342236002D263790133637135
:1015F0007CBD00BF400F002013B5174B1A6A019243
:10160000019A12F0100F1AD0DB6A13F0100F16D0E7
:10161000124B68461A796C460132D2B21A71104BDD
:101620001A6842F001021A60FFF79AFF0D4B6846F4
:101630001A8892B242F002021A80FFF798FF019BCB
:1016400013F0040F06D0044BDB6A13F0040F01D033
:1016500001F0C4F81CBD00BF00000140400F002095
:10166000840F002040100020104B4FF4000119613E
:101670000F4B02221A604FF0FF329A620D4AC2F8F5
:101680008010C2F88011186A4CF20200586044F6CB
:101690002060D86110205862013882F81703116069
:1016A00001221A6003321A60704700BF00040E4026
:1016B0000000014000E100E0014B02221A60704787
:1016C0000000014008B5FFF77DFF014B186808BD19
:1016D000400F00200A4B40001A69D96980B2891A6C
:1016E000814204D91969891A8142FBD307E0411A62
:1016F00089B218699042FCD818698842F9D37047BA
:1017000000000140436910B513F0E00F18BF4FF41B
:101710008673044618BF036030D113F0010F0DD05B
:10172000026912F0010F09D08169C9B201F050FBC2
:101730001348844214BF052002201DE013F4007FEB
:101740000CD0226912F4007F08D00D484FF40073CA
:10175000E360844214BF042001200DE013F0020F67
:101760000CD0236913F0020F08D005480223E36070
:10177000844214BF0320002001F008FB10BD00BF0D
:101780000040024008B50248FFF7BCFF08BD00BF9B
:101790000040024008B50248FFF7B4FF08BD00BF93
:1017A0000080024013B5012111FA00F00B4B01AC8F
:1017B0001A781043C0B21870094B20461A6842F0DC
:1017C00040021A60FFF7CCFE064B20461A8892B200
:1017D00042F002021A80FFF7CAFE1CBD480F00202B
:1017E000840F00204010002008B5024B986801F0DB
:1017F000E9FB08BD480F002008B5024B586801F00E
:10180000E1FB08BD480F002008B5024B986801F0C5
:10181000C1FB08BD480F002008B5024B586801F015
:10182000B9FB08BD480F002008B5024B986801F0CD
:1018300085FB08BD480F002008B5024B586801F031
:101840007DFB08BD480F002037B501AD2846FFF7E6
:1018500087FE0A4B00221C7828461A70FFF787FE85
:10186000074D07E014F0010F02D055F8043C9847EB
:1018700064080435002CF5D13EBD00BF480F0020A0
:101880006025410038B5184B5868C468656915F083
:10189000E00F1CBF4FF48673236015F0010F08D0D2
:1018A000236913F0010F04D001F01EFB0220FFF7A3
:1018B00079FF15F4007F09D0236913F4007F05D068
:1018C0004FF40073E3600120FFF76CFF15F0020F87
:1018D00008D0236913F0020F04D00223E360002034
:1018E000FFF760FF38BD00BF480F0020104B00F12C
:1018F0000C0253F822C082B0CDF804C0DDF804C059
:101900002CEA010CCDF804C0DDF804C04CF0420C08
:10191000CDF804C0DDF804C043F822C000F10C0289
:1019200053F822200A408A42F8D002B0704700BF24
:1019300000400340104B00F10C0253F822C082B06B
:10194000CDF804C0DDF804C041EA0C0CCDF804C0A9
:10195000DDF804C04CF0420CCDF804C0DDF804C042
:1019600043F822C000F10C0253F822200A408A42B8
:10197000F8D102B0704700BF00400340114B1C2259
:1019800002FB00325388126930B5934288BF93B28C
:101990000C4A1C2101FB00229168DFF82CC0591869
:1019A00091601169C91A116109E0516800F11404CC
:1019B00011F8015B013B4CF824509BB25160002BA5
:1019C000F3D130BD541D002000400340234B37B5F8
:1019D0001C2202FB00335B78044604F10C0501A8CD
:1019E00013BBFFF7BDFD1E4B53F8252022F002026A
:1019F00043F8252004F10C0253F8222012F0020FC4
:101A0000F8D101A8FFF7B3FD231E18BF0123032C53
:101A10000CBF002303F00103F3B1104B1C2202FBA7
:101A200004340123637017E0FFF79AFD0C4B53F861
:101A3000252022F0400243F8252004F10C0253F83F
:101A4000225015F04005F8D101A8FFF790FD034B97
:101A50001C2202FB043465703EBD00BF541D0020F3
:101A600000400340394B13B5DA6999690A406CD0DC
:101A700012F480500AD04FF44C521A62A2F5485228
:101A80001A61334B1A6842F0200250E012F4807F52
:101A900021D04FF480712F4A196292F800C0BCF136
:101AA000040F52D9596101F50451196192F800C02F
:101AB000294981F800C010705A6F42F480725A6749
:101AC000264B80225A600422C3F80421204B1A6856
:101AD00042F008022BE012F4085F20D01F4A0421D4
:101AE000C2F800117C3111605A6F22F480725A677B
:101AF0005A6F42F400725A67164B1A7812B9164A96
:101B000012781A70114B4FF408521A625A61A2F5FA
:101B100004521A610E4B1A6842F0100207E012F0EC
:101B2000FF0212D05A610A4B1A6842F0040201AC5B
:101B30001A602046FFF714FD094B20461A8892B21E
:101B400042F002021A80FFF712FD1CBD0040034064
:101B5000840F0020501D0020511D002000040E4065
:101B600040100020074B4FF40C521A62064B04221F
:101B70000F21C3F88420C3F8842183F822135A600C
:101B8000704700BF0040034000E100E01C2210B598
:101B900050430C4B1A5C03EB000C033AD2B2012AFF
:101BA0000FD8DCF8144002221A5454B1DCF80800B3
:101BB000DCF81030BCF80C20C3189BB2DCF818001D
:101BC000A04710BD541D00200A4B002203F1E00085
:101BD0004FF0FF3143F8082C196043F8041C59609A
:101BE0009A60DA6003F80B2C03F80C2C1C33834248
:101BF000F0D17047601D002070B5074D012400260C
:101C0000204601340221E4B2FFF7C0FF082C05F89A
:101C10001C6FF5D170BD00BF541D002008B50A4BE4
:101C200003221A70094B5A6F22F480725A675A6F56
:101C300042F400725A67FFF7C7FFFFF7DDFF00208D
:101C400001F0DEF908BD00BF501D00200040034038
:101C5000F8B58F4E00F10C0356F82350044615F0EA
:101C6000010F69D01C2161438A484218415C032955
:101C70005BD156F82330916813F4E06F538804D198
:101C800099422CBF0023012309E0994205D813692A
:101C9000D3F1010338BF002300E00023DBB27D4F06
:101CA000A3B11C2303FB0477BA68FB680026D31892
:101CB0000121FB602046BE60FFF718FE204631463A
:101CC000FFF764FF15F4E06F36D129E01C2303FB16
:101CD00004777B88FA689A18FA60BA68D31ABB60EE
:101CE000D4F1010338BF0023032C08BF43F00103E4
:101CF0005BB12046FFF742FE20461021FFF71AFE97
:101D000020460121FFF7F2FD0AE020461021FFF7EF
:101D100011FE20460121FFF7E9FD2046FFF72EFEC8
:101D20000122A2405A4B1A6106E020460121FFF72A
:101D3000DDFD0123A340336115F0420F5ED01C226C
:101D4000624354498B188A5C042A1BD0524E05EA20
:101D500006063EB92046FFF739FE20463146FFF71A
:101D600015FF05E015F0200F07D02046FFF72EFEE7
:101D70000122A240464B1A6140E00122A240444B9E
:101D80005A613BE01A692E0C964298BF334604D93B
:101D90009968891A8919996093B23E4A1C2101FBFE
:101DA00004221169C91A1161D1685918D1603849E2
:101DB0000BE004F1140051F820C05068013B80F89A
:101DC00000C050689BB201305060324F002BF0D100
:101DD0002046FFF7FBFD1C2303FB04773B6913B18F
:101DE0007B88B3420AD915F4E06F03D10122A240E7
:101DF000274B1A6120460021FFF7C8FE15F0040F9B
:101E00002ED01C236343234AD35C033BDBB2012B5C
:101E100003D820460021FFF7B9FE204B1C4A196861
:101E2000002304F1140052F82000C8540133082B99
:101E3000F7D11A4B1B6893F90030002B03DA2046C8
:101E40008021FFF777FD20460421FFF74FFD012297
:101E5000A2400F4B1A61114A53680BB110689847A2
:101E600015F0080F12D008212046FFF73FFD1C2374
:101E70006343084AD35C012B03D020462021FFF79F
:101E800035FD012313FA04F4014B1C61F8BD00BFBA
:101E900000400340541D00200007FF07540F00209E
:101EA00070B5012686400A4D0C46AB6A090246EA27
:101EB0000303AB62AB6A41F4004123EA0603AB6261
:101EC00041EA8221FFF736FD04B92E6170BD00BFE3
:101ED00000400340154B37B5044604F10C0253F89B
:101EE000222012F0100FF8D1204601ADFFF746FD79
:101EF0002846FFF735FB20461021FFF71BFD28463B
:101F0000FFF735FB231E18BF0123032C0CBF002352
:101F100003F0010343B1064B1C2202FB04331B698F
:101F200013B12046FFF72AFD3EBD00BF004003402D
:101F3000541D002008B52021FFF7FCFC08BD00005F
:101F4000044B40F480729A6010B101225A6000E0A4
:101F5000586070470040034020B1044B5A6842F07B
:101F6000020201E0014B01225A6070470040034029
:101F700038B5036841699A6CDD6C436845EA010134
:101F8000C568044643EA05050D4025EA02011540EF
:101F90001D42416101D083689847E3681D4201D02A
:101FA0002369984738BD0000F0B510F0800F89B064
:101FB0000591079220F08005514B04D0182707FBAC
:101FC0000537043703E0182707FB05370C37786817
:101FD000002840F091800446844601460346069559
:101FE000012515FA00F2059D2E5C042E16D8DFE8B7
:101FF00006F00B100305080013430FE013431143D1
:102000000CE01343114308E0134311434CEA020C64
:1020100004E0134311434CEA020C1443013020281E
:10202000DED1069D18226A43354E0692B218D66854
:10203000506846EA000003425ED105F10B000590AE
:10204000906848BB12693ABB059A0130D6B272B2A9
:1020500006F01F0610FA06F652092A4801922032AD
:10206000039240F82260019800F16002254840F890
:102070002260059E012212FA06F0234A204E1061CA
:10208000069832584FF0FF305064D66CC2F8B40056
:10209000C2F8D000C2F8C0000798194A786018202A
:1020A0004543501952593B60C2F8B010C2F8D440B1
:1020B000C2F8C4C01364059AD3B2826859B2002A28
:1020C0000CBF0F220E22002906DA11010F4A03F07D
:1020D0000F008218117604E0D0B20A4A8A1882F8FA
:1020E000000359B2012003F01F0310FA03F3054A5D
:1020F000490942F8213000E0002009B0F0BD00BFDE
:102100001805002000E100E000040E40FCEC00E0B7
:1021100020F0800318225A4304498B1810F0800FD6
:102120008A5814BF5B68DB68136470471805002089
:1021300010F0800F20F080020A4B04D0182101FB20
:1021400002335B6803E0182101FB0233DB681821CE
:102150004A4304498A58906C18401CBF53640120BC
:10216000704700BF1805002010F0800F73B5194BA1
:10217000044620F0800504D0182202FB05335E6877
:1021800003E0182202FB0533DE6801A8FFF7E8F937
:10219000182255430F4B5A195B595169D86C40EAC4
:1021A000010121EA060656619B6C1E420DD004F027
:1021B0007F040B3462B2012304F01F0413FA04F409
:1021C0005209054B403243F8224001A8FFF7CFF9EE
:1021D0007CBD00BF1805002000E100E008B5024802
:1021E000FFF7C6FE08BD00BF1805002008B502486D
:1021F000FFF7BEFE08BD00BF3005002008B502484D
:10220000FFF7B6FE08BD00BF480500204FF0804331
:102210001A6C13B5D96C01EA020212F0200F1DD01E
:10222000314A012111741F319964137A002B59D15D
:10223000D368002B56D02D4B01AC1A68204642F4CF
:1022400080721A60FFF78CF9294B20461A8892B2E7
:1022500042F002021A80FFF78AF943E0254902EAB8
:10226000010141B1234999641F4B1B68596840F62D
:102270004103994236D11C480168007A0B7A80B13B
:10228000CA684FF0804104E0086A013B42F8040B41
:10229000DBB2002BF8D1202203F180435A640122E3
:1022A0001FE012F0010F07D04FF0804301229A6423
:1022B0004FF000625A6415E012F0006F1CBFCA684C
:1022C0004FF0804105D10DE0086A013B42F8040B54
:1022D000DBB2002BF8D1202203F180435A644FF087
:1022E00000629A641CBD00BF5C0F0020840F0020B8
:1022F000401000200000FFE008B5034B01221A75D2
:10230000DB68984708BD00BF5C0F00200D4B08211B
:10231000DA684FF4806042F00402DA600A4A0B4B3C
:10232000C3F88010C3F8801110604FF0FF30506088
:10233000106840F4A02010600F2283F80323196076
:10234000704700BF10140E4030140E4000E100E052
:10235000064A936891688B42FBD11B1802D3044A4A
:1023600001211170014A5360704700BF30140E40C4
:10237000740F0020F7B5124B9E689A689642FBD105
:1023800001AF3846FFF7ECF80E4B38465B78002477
:102390001D46FFF7ECF8A41945F10005A00840EA36
:1023A00085706B016201A90843EAD463121843EBFC
:1023B0000103121B63EB05031046194603B0F0BD81
:1023C00030140E40740F00202020704713B51A4BB4
:1023D000DB681A4B9B6913F0010F02D0002000F05C
:1023E00035F8164B9B6913F0040F11D0144B01AC58
:1023F0001A68204642F400721A60FFF7B1F8114BD8
:1024000020461A8892B242F002021A80FFF7AFF813
:10241000094B5B68B3F1FF3F02D00B4B1B7833B124
:10242000094B00221A705A780132D2B25A70024B0C
:102430004FF0FF325A601CBD30140E40880F002050
:10244000840F002040100020740F002013B5104BA3
:1024500001AC9A696FF300029A619A6960F34102D4
:102460009A610C4B4FF400125A630B4B20461A68CA
:1024700042F480621A60FFF773F8084B20461A880E
:1024800092B242F002021A80FFF771F81CBD00BF41
:10249000880F0020000E0E40840F00204010002006
:1024A00010B5174B9B6913F0010F27D0154CFFF7A0
:1024B00003F922686368134303D1FFF75BFFC4E9A4
:1024C00000010F4B9B6913F0080F05D109F025FFA0
:1024D0000D4B4FF400121A63094A936943F0080345
:1024E000936100F0E9FE094B1A6922F004021A61B7
:1024F000074B1A6F42F488121A6720BF10BD00BF45
:10250000880F0020780F0020000E0E4000ED00E044
:1025100000040E4013B50C4A01AC9369204643F009
:1025200001039361094B1A6842F400621A60FFF7D5
:1025300017F8074B20461A8892B242F002021A801E
:10254000FFF715F800201CBD880F0020840F002025
:1025500040100020144B10B51A6F144C22F488124E
:102560001A6700F009FFFFF705FFDFF844C0DCE958
:102570000023801A61EB030100220023CCE9002331
:10258000FFF702F8FFF770F800F092F8A3696FF315
:10259000C303A36109F0BEFEA36913F0020F02D1C9
:1025A000236803B1984710BD00040E40880F002037
:1025B000780F002008B500F049FF0B4B0B4A0C497F
:1025C0009A600C4A0C4B03E052F8040B43F8040BDE
:1025D0008B42F9D3094B0A49002201E043F8042B4E
:1025E0008B42FBD3FEF770FA00ED00E00000002004
:1025F000B4090020342B410000000020B80900205D
:102600002C29002008B5FFF765F808BD08B5802023
:10261000FFF7AAFD08BD08B58020FFF779FD08BDCA
:1026200008B58020FFF784FDC0B208BD024B4FF40F
:1026300000121A63704700BF000E0E40024B4FF4A9
:1026400000125A63704700BF000E0E40024B4FF05D
:1026500080721A63704700BF000E0E40024B4FF0AD
:1026600080725A63704700BF000E0E40044B4FF457
:1026700000125A631A6102F560021A631A61704708
:10268000000E0E4010B588B00521202268460FF0DC
:1026900069FE042380206946034A6C468DF80130A8
:1026A000FFF782FC08B010BD5DBF400001207047FD
:1026B00010B5002400F04AF8812000F033F82046DD
:1026C00000F030F8C4B200F039F8082CF2D110BD97
:1026D00008B509F01FFE08BD70477047704700003D
:1026E0000B4A4FF4E04353600A4B4FF40011196159
:1026F000094B8221196009495960094999634FF0D2
:10270000FF319961023119604FF400631361704722
:10271000000E0E4000040E400080004011000B002F
:1027200002090C01044BD8601A6912F0010FFBD0AA
:10273000014B9868704700BF00800040024B4FF487
:1027400000621A63704700BF000E0E40024B4FF448
:1027500000625A63704700BF000E0E4008B5034B7D
:1027600002221A70FFF78EFF08BD00BF341E002042
:10277000124B1A78022A1FD1490089B2104A598097
:10278000187011695A888A1892B29A80998844F60A
:10279000206289B2914205D99A88A2F59C42203ADA
:1027A00092B29A80054B01209A88054B92B25A61E9
:1027B0001A6A04225A6200E000207047341E00208A
:1027C00000000140034B04229A62034B02221A705C
:1027D000704700BF00000140341E002008B5114BB7
:1027E0001A78012A05D1104A0421916202221A7036
:1027F00015E09A8859888A1892B29A80998844F686
:10280000206289B2914205D99A88A2F59C42203A69
:1028100092B29A80034B9A88034B92B25A6109F0A4
:10282000E1FC08BD341E00200000014070B50E4ED2
:102830000EE00D480021224600F0B5F9237B2BB9AC
:102840006560094821462A4600F072F923699847D5
:10285000336843B1FEF736FF346805466268A36803
:10286000821A9A42E5D270BD800F002038B5054625
:102870004FF0FF304DB10B4B1C6802E0AC4203D06F
:102880002468002CFAD101E0002038BDFEF71AFFC1
:102890002C60024668602946024800F049F920464B
:1028A000F3E700BF800F002010B5044680B10A484E
:1028B0000368A34205D0214600F083F9014608B918
:1028C00006E000210448224600F06DF9002001E0F6
:1028D0004FF0FF3010BD00BF800F002008B5FEF79D
:1028E000F1FE034900220B7802431046194608BD49
:1028F000450F002037B5754C236813F0010F0DD03C
:1029000001AD2846FEF72CFE2368284623F001037C
:102910002360FEF72CFEFFF789FFC5E0236813F460
:10292000007F0DD001AD2846FEF71AFE2368284629
:1029300023F400732360FEF71AFE00F09FFCB3E05F
:10294000236813F4806F0DD001AD2846FEF708FE12
:102950002368284623F480632360FEF708FEFFF710
:10296000F9FDA1E0236813F4006F0DD001AD2846F6
:10297000FEF7F6FD2368284623F400632360FEF784
:10298000F6FDFFF78DFD8FE0236813F0020F0DD0E9
:1029900001AD2846FEF7E4FD2368284623F0020334
:1029A0002360FEF7E4FD00F0BDF97DE0236813F03D
:1029B000040F0DD001AD2846FEF7D2FD236828464E
:1029C00023F004032360FEF7D2FD00F0F5FB6BE07B
:1029D000236813F0080F0DD001AD2846FEF7C0FDA7
:1029E0002368284623F008032360FEF7C0FD00F0AB
:1029F000EDFB59E0236813F0100F0DD001AD284610
:102A0000FEF7AEFD2368284623F010032360FEF78F
:102A1000AEFD00F0E3FB47E0236813F0200F0DD07C
:102A200001AD2846FEF79CFD2368284623F02003CD
:102A30002360FEF79CFD00F0D9FB35E0236813F01E
:102A4000400F0DD001AD2846FEF78AFD23682846C9
:102A500023F040032360FEF78AFDFEF7F5FE23E036
:102A600023681A4D13F0800F0DD001AC2046FEF7FD
:102A700077FD2B68204623F080032B60FEF777FD5F
:102A800000F0BEFB10E02B6813F4807F0CD001AC8B
:102A90002046FEF765FD2B68204623F480732B60EB
:102AA000FEF765FDFFF728FC084B1B6863B101AC1E
:102AB0002046FEF755FD064B20461A8892B242F09A
:102AC00002021A80FEF753FD3EBD00BF840F0020B6
:102AD000401000207FB508B34268144B1A600368A9
:102AE00001A8039301238DF81030013B059300F0FA
:102AF00091FB10F1030F14BF00230123B0F1FF3F3E
:102B000014BF184643F0010058B9FFF703FDB0F1B8
:102B1000FF3F14BF00206FF0020004E04FF0FF30D1
:102B200001E06FF0010007B000BD00BF880F00207A
:102B3000F0B5046885B005461746002C2CD000235C
:102B400020464FF0000CCDE902232646019501E016
:102B50008446184642688468BA4204D80023121991
:102B600043F1000303E05242A21A64EB0403DDE9DF
:102B70000245121B63EB050313B98C68944204D918
:102B80000368002BE4D1844608E0B0423446019D3E
:102B900018BF034602D10860296002E0CCF800109B
:102BA0000B6005B0F0BD034600688242106803D197
:102BB00000211160186003E00023086013600868BA
:102BC0007047006803E003688B4202D01846002873
:102BD000F9D170470C4BF7B50C4DC61A18BF01263A
:102BE00055F826407CB101AF3846FEF7B9FC248980
:102BF0003846A4B2FEF7BBFC2CB155F826301B6B4F
:102C00000BB120469847FEBD00400240A40F0020B3
:102C100008B50248FFF7DEFF08BD00BF0080024094
:102C200008B50248FFF7D6FF08BD00BF00400240CC
:102C3000F0B52B4F2B4BC71B18BF012753F827505C
:102C400085B00446002D49D0274B98421CD195F8F9
:102C5000383013F002021EBF244AD26BC2F3006266
:102C600013F001031EBF214BDB6BC3F3006313435F
:102C70000AD01C480A230361012303751C4B83619E
:102C80000830FFF7F3FD29E003AE3046FEF768FC9D
:102C90006A882B8892B29BB2304601920093FEF76D
:102CA00066FC009B019A9A4204BF4FF40073A36034
:102CB00014D00C4A304652F827205F1C916ABFB2EC
:102CC000CB5CE361938DBB4208BF00270223A36066
:102CD000FEF746FC2F803046FEF749FC05B0F0BDFC
:102CE00000400240A40F002000800240000E0E4071
:102CF000F52C400008B50248FFF79AFF08BD00BF59
:102D00000080024008B50248FFF792FF08BD00BFEF
:102D10000080024008B50248FFF78AFF08BD00BFE7
:102D200000400240F0B5012385B0164C8DF80F30FD
:102D30000626002501AF237F9DF80F201A4214D0EC
:102D40003846FEF70DFC237F9DF80F20384682EAB7
:102D500003032377FEF70BFC0B4B02A803EB850163
:102D600004220FF079F9029B98479DF80F30013546
:102D70005B00DBB216F1FF36EDB28DF80F30DAD121
:102D800005B0F0BDA40F00207425410013B501214A
:102D900011FA00F00B4B01AC1A7F1043C0B2187748
:102DA000094B20461A6842F002021A60FEF7D8FB6F
:102DB000064B20461A8892B242F002021A80FEF7B1
:102DC000D6FB1CBDA40F0020840F00204010002063
:102DD000244A254B821A18BF012253F8223030B5FD
:102DE00013B90133C3603CE01C6A002C39D0D88889
:102DF000B3F806C09D8C0CF1010C1FFA8CFCA3F8F3
:102E000006C0B3F806C080B21FFA8CFC654504BF4B
:102E10004FF0000CA3F806C0DD88B3F804C0ADB2D3
:102E20001FFA8CFC654508BFD8801AD02154198937
:102E3000013189B219810C4951F8222092F83810D9
:102E400011F0010F0DD0D0680849884209D11B89C3
:102E5000928C9BB2B3EB520F82BF054B4FF00072C6
:102E60001A6330BD00400240A40F002000800240E1
:102E7000000E0E40124BF0B5C51A18BF0125114BBC
:102E800085B053F82540CCB103AE3046FEF768FB61
:102E9000638830469BB227880193FEF768FB019B4D
:102EA000BFB2BB4201D10123A372064B53F82530B8
:102EB0009A8D02B99A625B6B03B1984705B0F0BD79
:102EC00000400240A40F002008B50248FFF7D2FFDF
:102ED00008BD00BF0080024008B50248FFF7CAFFE6
:102EE00008BD00BF00400240C268C3889169026A01
:102EF00010B59BB20AB3B0F806C0848C0CF1010C7B
:102F00001FFA8CFCA0F806C0B0F806C01FFA8CFCB3
:102F1000644504BF4FF0000CA0F806C0C488B0F8A8
:102F200004C0A4B21FFA8CFC644508BFC38004D05F
:102F3000D154038901339BB2038110BDF0B585B034
:102F400003AE0446C7683046FEF70AFB6388304686
:102F50009BB225880193FEF70AFB019BADB2AB4201
:102F600004BF4FF40073BB6012D0A36A30465B5DB0
:102F70000135FB61A38DADB2AB4208BF0025022332
:102F80002580BB60FEF7ECFA25803046FEF7EFFAAD
:102F900005B0F0BDF7B501AD04462846FEF7E0FAEE
:102FA00067882688BFB2B6B22846FEF7E0FAB74275
:102FB00001D10123A372A38D03B9A362636B03B193
:102FC0009847FEBD73B501AE05463046FEF7C8FA18
:102FD0002C893046A4B2FEF7CAFA1CB12B6B0BB198
:102FE000204698477CBD0000014B1860704700BF29
:102FF000C40F0020014B1860704700BF580F00201D
:10300000F8B5144E28B94023738004460746054698
:103010000EE084781C2304F00F0503FB056642795B
:103020000379C77843EA022307F00307E4097380B2
:103030003378033BDBB2012B03D828460321FEF78C
:10304000A5FD02233370284639462246FEF728FFA5
:10305000F8BD00BF541D00204FF01C0C0CFB00FC01
:1030600070B50F4E044616F80C5006EB0C00022DFE
:1030700014D14361049B00258361416003230261F5
:103080008560C560204606F80C30FEF723FF01235B
:1030900013FA04F4034B28461C6100E0012070BDC4
:1030A000541D00200040034070B5F1B11C2444437E
:1030B000104D2E5D05EB040C022E18D1CCF8143007
:1030C000049BCCF81020CCF81830012313FA00F040
:1030D000094B002202362E55CCF80410CCF80820FB
:1030E000CCF80C201861104602E0022000E001201C
:1030F00070BD00BF541D00200040034008B51C23D4
:103100004343054AD35C022B03D1FEF713FF002093
:1031100000E0012008BD00BF541D002010B504468A
:103120000078FEF70DFF2278034B0AB1052200E07C
:1031300003221A7010BD00BF501D002010B50446B8
:10314000FEF70AFF044B14B106221A7003E00522B1
:103150001A70FEF751FD10BD501D002008B50E4B32
:103160001860FEF731FD0D4B00221A700C4B023235
:103170001A700C4B0232C3F800217C321A600A4BE1
:103180005A6F22F480725A675A6F42F400725A677B
:10319000FEF7E8FC08BD00BF540F0020501D0020C2
:1031A000511D002000040E4000400340014B1878E0
:1031B000704700BF501D002010B50024E0B201345C
:1031C000FEF746FD082CF9D110BD000008B5024BF2
:1031D0009B6803B1984708BDC40F002008B5024B97
:1031E0005B6803B1984708BDC40F002008B5FEF71F
:1031F00015FD024B1B6803B1984708BDC40F0020A2
:1032000008B5034B00221A705B68984708BD00BFE1
:10321000D00F002070B506464FF0FF3056B3FFF7D1
:10322000D3F8B4684FF47A734443B4FBF3F4FCB1BD
:10323000DFF844C0DCF8185015F0040518BF6FF033
:10324000020017D1DCF81830B64643F00403CCF87E
:1032500018300CF1040CBEE80F00ACE80F00DEF8EB
:1032600000302046CCF80030FFF772F8284601E025
:103270006FF0010070BD00BF880F002008B50D4B36
:103280009A6912F0040F14D01A7C5AB95B6903B121
:103290009847084B9A6912F0040F0AD0D868FFF7D4
:1032A00057F806E09A696FF382029A615B6903B18D
:1032B000984708BD880F00202D4B4FF4C0621A605C
:1032C000A3F5C0631A6A22F45C1222F0780242F479
:1032D0005C1242F008021A621A46916E254B11F4F4
:1032E000003FFAD01A6B22F0030242F001021A6387
:1032F0001A46916E1F4B11F0080FFAD01A6B22F488
:10330000405222F070021A631A46916E194B11F066
:10331000080FFAD01A6A22F09A7222F4403242F46C
:103320005C121A62996E134A11F4803FFAD04FF082
:1033300000539362916E0F4B11F0020FFAD14FF0D0
:103340000052DA621A46916E0A4B11F0040FFAD15C
:103350001A6A22F45C1222F0010242F45C121A6230
:103360009A6E12F00102FBD1014B1A60704700BF48
:10337000000A0E4000040E402C4B4FF4C0621A604D
:10338000A3F5C063196A2A4A41EA02021A621A4680
:10339000916E284B11F0010FFAD01A6A42F09A721E
:1033A00042F440321A62996E224A11F4803FFAD0F8
:1033B000214B9362916E1F4B11F0020FFAD01A6BE2
:1033C00022F0700242F010021A631A46916E194BF5
:1033D00011F0080FFAD01A6B22F0030242F0020239
:1033E0001A631A46916E134B11F0080FFAD01A6A3D
:1033F00022F45C1222F0080242F45C121A62996E06
:103400000C4A11F4003FFAD10C4BD362916E094B78
:1034100011F0040FFAD01A6B1A6340F201129A638A
:103420004FF4407203F5C0631A607047000A0E4003
:103430000120370000040E4001BF062005BF1920FF
:1034400008B5FFF739FFFFF797FF08BD08B5FFF78D
:10345000F7FF074B4FF400621A61064A03F58053E9
:103460001A604FF4004250335A6062B608BD00BF84
:1034700000040E40080000A5064B194605E0D3F8ED
:1034800014C01CF0020FFAD0CA6110F8012B002AF8
:10349000F5D1704700060E4010B504460C48FFF702
:1034A000EBFF0C4820230146043BDBB2426912F0DB
:1034B000020FFBD034FA03F202F00F02092A01D9FD
:1034C000373200E03032CA61002BEDD110BD00BFB1
:1034D0008C25410000060E40684BF7B54FF4807212
:1034E0001A6103F50073A0221A604FF0FF32DA6010
:1034F000634A4FF4C061516023221A624FF40062A4
:103500005A604FF486721A605E4E40221A60851E21
:103510000D2D1AD8DFE805F007090B0D0F19191941
:10352000191113191517584810E058480EE058485B
:103530000CE058480AE0584808E0584806E0584867
:1035400004E0584802E0584800E05848FFF794FF6C
:103550005748FFF791FF574F0024013457F8040FE5
:10356000E4B2FFF799FF042C04D15348FFF784FF1E
:10357000002402E05148FFF77FFFB742EDD1504CE5
:103580004D48FFF779FF4F48FFF776FFE06BFFF7F5
:1035900083FF4948FFF770FF4B48FFF76DFF606CF2
:1035A000FFF77AFF4448FFF767FF4848FFF764FFDB
:1035B000A06BFFF771FF4048FFF75EFF4448FFF73D
:1035C0005BFF206CFFF768FF3B48FFF755FF414862
:1035D000FFF752FF606BFFF75FFF3748FFF74CFFC5
:1035E0003D48FFF749FF646C3C48FFF745FF002763
:1035F0000194012413E0019B53F8040B0193FFF79E
:103600004BFF062C03D82D48FFF736FF03E02A486E
:10361000FFF732FF002401370134FFB2E4B2019A10
:10362000132F8CBF00230123B2F1085F8CBF00234E
:1036300003F00103002BDED11F480093FFF71CFFAE
:103640002748FFF719FF009B1C4642F21070FEF757
:1036500041F842F21070FEF73DF842F21070FEF7AA
:1036600039F8013442F21070FEF734F8E4B242F255
:103670001070FEF72FF8282CE7D149E700040E4020
:10368000000E0E406C1E0020E1284100FB28410086
:103690000F2941002B2941003A2941004B294100C3
:1036A000602941007A29410086294100A129410071
:1036B000B8294100381E00202D2B4100F929410076
:1036C0003C1E0020D2294100FB294100222A410052
:1036D000422A41007F2A4100BE2A4100E82A4100D7
:1036E000FF2A41002DE9F0411746184A1E4653684B
:1036F00012784FF028088C4608FB0238E0B91846CB
:103700001BE090F82010B1F1A40318BF0123AA29EF
:103710000CBF002303F0010373B9037ABB420BD142
:103720004389634508D1D6E90045D0E900236240CA
:103730006B4052EA030405D028304045E1D3002015
:10374000BDE8F081A429F7D1BDE8F081D80F0020B1
:1037500010B5174B0022016883F8302183F831211E
:10376000144AC3F84C01127A83F83521088CDA8C9C
:10377000B0FBF2F083F83301098CC4B2B1FBF2F074
:1037800002FB101292B212B1621C83F833210A4A72
:10379000FF21527811FA02F20649D24322F00102C7
:1037A00083F832214A7A501C487283F8342110BDC4
:1037B000881E0020D80F0020E81B002090F8283039
:1037C00003F00803DBB22BB1008C5F2894BF00200C
:1037D0000120704718467047F0B52C4B00221D7829
:1037E00099684EE00B461C7C01F1C00114F0010405
:1037F00045D1C3F89040032845D8DFE800F0020225
:10380000140222498A780C79A2424FF0000298BF34
:10381000134639D901340C71597C9A6062F307114F
:1038200059741A711EE0194AD5785178A9422AD9DB
:10383000167B146900220FE0214614F8287B4FB94B
:10384000124C0135E570012401F81C4BC3F89010AF
:103850001C7103E00132D2B2B242EDD10B49097BB7
:10386000914210D05A7C6FF303025A741A7C42F0D2
:10387000010260F347021A7400221A6004E0013268
:10388000D2B2AA42AED100231846F0BD881E002055
:10389000174A10B59168C024431AB3FBF4F3DBB2A6
:1038A00004FB0313197C490803291BD8DFE801F046
:1038B000020208021279AAB10D49013A0A7111E017
:1038C000D17811B10A480139C1701269D3F890104A
:1038D0002820891AB1FBF0F1C9B24143505C08B10C
:1038E000002050541A7C6FF300021A7410BD00BF00
:1038F000881E0020024B9A7A01329A7206F02ABA88
:10390000D80F00202DE9F041664B0546C1F8A030E4
:10391000022381F8883003890C46A1F88A3090F898
:10392000293081F89830002381F89930012381F8FB
:103930009A3081F89B3081F89C3090F8282002F072
:103940004002D2B232B902894FF6F7739A428CBF65
:1039500000230123544E84F89D302846B6F8268073
:10396000FFF72CFFF8B196F8332196F83031013A81
:10397000934208BF95F82070D6F8500108BF08FBA5
:103980001377696A14BF5FFA88F7FFB203FB081167
:103990003A4620300A370EF05FFB84F88C70D6F878
:1039A0005031163306E095F82030083384F88C3017
:1039B0006B6A083BC4F89030D4F89060337803F019
:1039C000FC036FF3041333702A894FF6F6739A429F
:1039D0008CBF02220022337862F383036FF3451316
:1039E000337095F82820DBB202F00402D2B21AB983
:1039F00062F38613337015E043F040033370637C49
:103A0000012262F3030363742846FFF7D7FE637C49
:103A100018B1254A92F8352101E0244A127A62F35E
:103A2000071363742846FFF7C9FE3378B0B143F03B
:103A3000800333701C4B327A93F8301131B9012175
:103A400061F30102327293F8333105E0022161F330
:103A50000102327293F83031737202E060F3C713DF
:103A600033702B7E284673702B7FB3706B7FF3709F
:103A7000AB7E3371EB7E7371AB7FB371FFF79EFE4C
:103A800018B1094B93F8343103E0084A537A591CB2
:103A9000517204F11800F371FFF72CFF0020BDE80C
:103AA000F08100BF813E4000881E0020D80F00201A
:103AB000024BD3F84C110868FFF724BF881E002082
:103AC00030B5294B0221012483F8DA4083F8DB402A
:103AD00083F8DD4041F0800483F81C4193F83840BE
:103AE00003F58E7283F81D419C8EC3F8D020A3F895
:103AF0001E41DC8E1A8EA3F8204193F83240A3F8C1
:103B0000CA2083F8224193F839400B2283F82341DD
:103B100093F8244183F8C81061F3010483F8CC20A2
:103B20002146002262F3870183F8241193F82D10B7
:103B30000E4D83F8251193F82E1083F8D82083F8C2
:103B4000261193F8281183F8D92083F8DC20C3F8D4
:103B5000E05083F801119A62187603F15800BDE82D
:103B60003040FFF7C7BE00BF881E002089404000DC
:103B700073B51831009104460DF107010D20FDF7D2
:103B8000B9FC9DF80720002A36D0009A012382F85C
:103B9000703023894648A2F8723094F820300833F8
:103BA00082F87430636AA3F108019167FF2103F87A
:103BB000071C217F03F8061C617F03F8051CA17E0A
:103BC00003F8041CE17E03F8031CA17F03F8021C28
:103BD000417A03F8011C936F4D1C45721A7802213B
:103BE00002F0FC0261F3830202F08F026FF3C7124E
:103BF0001A70009B2F4A3DE00099022381F8703033
:103C00004FF6FD73A1F8723094F82030284D093337
:103C100081F87430636AA3F109008867208903F88A
:103C2000080C000A03F8070C207F03F8060C607FDD
:103C300003F8050CA07E03F8040CE07E03F8030CE7
:103C4000A07F03F8020C687A03F8010C8B6F461C06
:103C50006E72197862F30101C9B241F00C0162F38E
:103C6000041162F3451162F3861162F3C7111970F2
:103C7000009B114AC3F88820009B94F8292083F800
:103C800080200E4A009B127883F88120009A01233D
:103C900082F88230009A82F88330009A82F8843069
:103CA000009A009882F88530FFF724FE00207CBD42
:103CB000D80F0020813E4000A13E4000E81B0020BC
:103CC0002DE9F0410D46044602F03CF8A8260746CF
:103CD000D5F8B88021E098F80C30C5F8B880032BEF
:103CE00010D108F1100007F039FB002814D098F823
:103CF000183029462376008820812046BDE8F0410F
:103D0000FFF700BEB8F8108020462946A4F80880C6
:103D1000BDE8F041FFF72CBFA9264046A18BA27F4A
:103D20003B46FFF7DFFC80460028D4D13046BDE893
:103D3000F08138B50023C1F8B8300C46FFF7C0FF5A
:103D4000054610B12046FFF7A3FD284638BD000008
:103D500013B5044601A91920FDF7CCFB024BD86826
:103D6000019B00FB04301CBDD80F002010B50EF0E5
:103D70009BFB04460EF098FB2401C3B204F47F4081
:103D8000184310BD70B538202949FDF7B3FB4D200D
:103D90002849FDF7D8FB284A002315692820194631
:103DA00004E000FB03F401332955DBB2167B224CFF
:103DB0009E42F6D837202146FDF79CFB4C2004F1AB
:103DC0000801FDF7C0FB2078A268002306E0117C03
:103DD00001336FF300011174DBB2C0328342F6D1BC
:103DE000154C012B88BF013B227BA3700023E3709D
:103DF000237162703F201149FDF77CFB3E20104982
:103E0000FDF778FB94F824303BB14E200D49FDF7C7
:103E10009AFB4F200C49FDF796FB074B93F82420A3
:103E2000D88CD96900FB02121A6200221A7670BD82
:103E3000941E0020981E0020881E0020AE1E002028
:103E4000AC1E0020A41E0020D81F002007B50122B0
:103E500012FA00F0084B1A7C1043187401A8FDF701
:103E60007FFB064B01A81A8892B242F020021A800A
:103E7000FDF77DFB0EBD00BFD80F002040100020D5
:103E800008B501460548837A013B8372143008F077
:103E90006CFA0120BDE80840FFF7D8BFD80F00201A
:103EA00010B550F8143C04465A789878FF2142EA3D
:103EB000002005F09BFA40B1064BA4F18C0044F8B9
:103EC000043CBDE8104005F009BF2046BDE81040A5
:103ED000FFF7D6BF813E40000146064810B550F8B6
:103EE000184F08F042FA24B92046BDE81040FFF709
:103EF000ADBF10BDD80F00202DE9F04100240126F0
:103F0000274D40F20128274F33E0AB68C02202FB67
:103F100004331A8A22F0FE021205120D424526D100
:103F2000197C01F0FE01A1F10600424242EB0002C1
:103F3000022914BF114642F00101C1B19968092953
:103F400003D90A399960002611E0597C042060F3F6
:103F5000030159740021996032B17B78FF2212FA73
:103F600003F3DB4385F832310120FFF76FFF0134A3
:103F7000E4B22B780A4AA342C7D8936A43B10A2B0A
:103F800003D90A3B9362BDE8F0810220FFF798FD58
:103F900026B10548BDE8F04108F024BBBDE8F0813A
:103FA000881E0020E81B0020F40F00202DE9F041BE
:103FB000244B28265C681B780546884606FB03468A
:103FC00000F1100730E094F820306A89B3F1A400C2
:103FD00018BF0120AA2B0CBF002300F00103297A8F
:103FE0000BBB237A8B421ED1638993421BD1D5E947
:103FF0000001D4E9002342404B4052EA030112D1B0
:104000001AE0012B04D12A8A238A9A420BD110E0AC
:104010002A7E237E9A4206D104F1100138460822F6
:104020000DF0BEFF28B12834B442CCD385F82080EF
:1040300000242046BDE8F0812A7B237B9342F2D105
:10404000DFE700BFD80F002010B50446C0B180F8EC
:10405000301012B11368436300E04263E36A13B1A6
:1040600004F1300098472046FFF7A8FB40B1054B0C
:1040700000220120C3F84C21BDE81040FFF7E6BE46
:1040800010BD00BF881E002030B51248837A013B66
:104090008372114B1A7E032A01D1002216E093F895
:1040A00029219AB1012119760C49446B49780A25D6
:1040B000013905FB0141047A013A61431C309962E0
:1040C00083F82921BDE8304008F084BA1A769A6254
:1040D00030BD00BFD80F0020881E0020E81B002044
:1040E00038B5A1F1CE0EDEF100030568D0F8B0209E
:1040F00043EB0E03F02908BF43F0010304466A6353
:1041000085F830103BB92B792BB928462146FFF7AB
:10411000D7FDA8280BD1206895F8301005F134029E
:10412000FFF792FF2046BDE83840FFF7B1BB38BD2E
:1041300070B50646002843D0A62380F82030037AC5
:10414000002B3DD0FF2B3BD0037B032B05D1037EFF
:10415000002B35D0FF2B02D170BD012B30D10021B7
:1041600086F820103046FFF721FFE0B9154B1A788A
:104170005B6812E01C46283313F8081CA8290AD1F2
:10418000A42584F820502046314628220DF064FFF3
:1041900084F820500EE00130C0B29042EAD1AE2344
:1041A00086F8203070BD3046A621FFF7FFFEA4231D
:1041B00080F8203010200021BDE8704008F0A2B93E
:1041C00070BD00BFD80F002010B5002820D0A62356
:1041D00080F82030037ADBB1FF2B19D0037B032B4F
:1041E00004D1037EA3B1FF2B02D110BD012B0FD14F
:1041F000002480F82040A421FFF7D8FE40B1A82376
:1042000080F8203021461020BDE8104008F07AB92F
:1042100010BD0000014608B5034808F0A6F80120CB
:10422000BDE80840FFF712BE10100020014608B597
:10423000034808F09AF80120BDE80840FFF706BEE1
:104240001410002010B5344B86B02E2005A993F829
:104250003240FDF74FF9192003A9FDF74BF9039BF5
:10426000A34205D85B00192003A90393FDF755F974
:104270009DF8143003225A432848039B0734C46036
:1042800004FB023400210A224463254B1C3008F051
:10429000B2F901230DF115012E208DF81630FDF72E
:1042A00029F99DF815004000FF2828BFFF20C0B263
:1042B000FFF74EFD0DF1160104462320FDF71AF914
:1042C0009DF8163000221219013B02F5FE72DBB296
:1042D00003326400002BF6D106A9540A01F8013D0F
:1042E00039208DF8163004930134FDF703F9472087
:1042F00004A9FDF728F9FF2C28BFFF240123E4B20D
:1043000001939DF81720074804994FF40073009417
:1043100008F03CF806B010BD281C0020D80F002083
:10432000F93E40001810002038B548B1FFF71EFDD7
:104330002449002348728B7223200831FDF7DAF8F4
:10434000204B214C00259D63DD635D615D650A2383
:10435000C4F840311D4B2620C4F848311C490123C4
:1043600084F84431FDF7C6F82946C02204F1400024
:1043700084F82E5084F8395084F82C50A58684F89F
:104380002D5084F83250E586258684F838502576FD
:10439000A5620DF0E7FF2946282204F580700DF094
:1043A000E1FFE28C94F8243001325A43E069294657
:1043B0000DF0D8FF04F58E73C4F8D030BDE8384056
:1043C000FFF740BFD80F0020881E0020B13A400000
:1043D000E91B00202DE9F8434A4D0446B5F8583052
:1043E000A0F11806B3F5E06F43D107E0464807F0A7
:1043F00097FF3846A3210022FFF726FEAF6B002F60
:10440000F4D11BE04946414807F090FFBB68C3EB7D
:104410000902B2FBF5F2D2B26A43991898580B7CA4
:104420005B0804BF99F8041009F10C0203D0012BBA
:1044300008D1A7210022FFF707FE03E0DFF8C480C0
:10444000334FC025D8F81490B9F1000FDAD1304DB0
:10445000C0270BE0A86807FB0900037CDB0701D538
:10446000FFF716FA09F101095FFA89F92B784B4534
:10447000F0D8244D00232B7485F85A300120FFF723
:1044800053FFFFF77FFCF06905F09CF96668512047
:10449000291DFDF758F806F003063D202946FDF7D3
:1044A00029F8032E0BD02A786B68282101FB0231F2
:1044B000A82202E083F8202028338B42FAD3237904
:1044C00040F23F4203F002030E4DDBB2002B14BF5B
:1044D00013464FF44C73A5F858302378264606F857
:1044E000103F05F1180007F01BFFE36830469847BE
:1044F000AB6923B10020BDE8F843FFF7A7BCBDE8D6
:10450000F88300BFD80F002010100020EC0F00200F
:10451000881E002038B5304DAC692A4623798A2B95
:104520001BD0C52B34D0192B55D1B5F8583004F118
:104530000800B3F5887F14BF4FF4E0634FF40073B5
:10454000A5F85830E369E36094F820302374234BD6
:104550006361BDE8384007F0EDB8B5F85830B3F501
:104560004C7F02D0B3F5C26F07D140F23F43A2F8AF
:104570005830FFF767FE002300E0A323164D237396
:1045800005F1180007F0CCFE04F10C00A3681AE056
:10459000B5F8582040F23F439A420BD14FF4A06344
:1045A000A5F85830022305F11C00238108F01AF801
:1045B00001200CE005F1180007F0B2FEA32320460D
:1045C00000F8103FE3689847AB6923B10020BDE8CD
:1045D0003840FFF73BBC38BDD80F0020D543400022
:1045E0004FF6FF73994203D1C043C0F3C030704708
:1045F000421A504240EB02007047000010B9024BD3
:10460000D86D704700687047D80F002010B5044679
:10461000002003E083681B78A34203D0FFF7EEFF7E
:104620000028F7D110BD000038B50446B8B1A62364
:10463000037483689BB11878431EDBB2EF2B0ED84E
:10464000FFF7E4FF054650B9E3680548D3F10103DD
:1046500038BF00232371214607F087FE257438BD3B
:1046600034100020F8B50546002419E02379BBB9C1
:10467000A668A98E7378B07843EA0020FFF7B0FFF0
:1046800070B1367895F83230B34204D12F8C04F0F3
:104690004FFC874204D02889314604F0A7FE30B988
:1046A0002046FFF7ABFF04460028DFD1F8BD2E7689
:1046B000E36828469847F3E72DE9F0470569044683
:1046C0000E4694B00189EA79734807F0A6FE0028E7
:1046D00000F0D8806878002700F1FF385FFA88F88A
:1046E000B8F1FD0F02D8FFF791FF074617F1000A56
:1046F00018BF4FF0010AB8F1FD0F94BF53464AF0BE
:104700000103002B00F0BE802279E388012A18BF44
:1047100002228DF80420ADF808306B7820898DF8DE
:10472000183006F031FA38B103238DF81930D0E98A
:104730000023CDE90A2302E002238DF819302389F2
:10474000ADF820306389ADF83030AB798DF8323078
:104750006A792B7943EA0223ADF83430EA78AB78F2
:1047600043EA0223ADF83630237BA3F10A02ADF809
:10477000382000228DF840202A7802F08002D2B240
:1047800012B9A3F1080204E02A7A910703D1A3F138
:104790000902ADF83820BDF838208DF841609B1A29
:1047A0002269D3180F93237F8DF84230237D8DF833
:1047B0004330A3691193637D8DF848302B7803F063
:1047C0008003DBB26BB32B7A03F00303022B28D1F7
:1047D000324B01261A6A98461178ADF8381092F8D3
:1047E000009017E0D8F81C30B8F8261003EB090049
:1047F00001FB0631D8F820309A5D0DF02DFCD8F879
:104800002030BDF83820995D8A18ADF838209B5DBE
:104810000136994498F82C309E42E3DB1F4BDB694C
:104820000F93BAF1000F03D0FB686846984729E060
:104830002379012B03D16846FFF714FF22E06B7840
:10484000FF2B1CD113E0AB681E788EB12A797AB9A0
:104850005A789878BDF8341042EA0020FFF7C0FE7D
:1048600030B18DF81860EB686846984700E055460F
:104870002846FFF7C3FE05460028E4D102E068465B
:1048800008F08AFE0023204600F8243F236A984758
:1048900014B0BDE8F08700BF18100020881E00206B
:1048A0002DE9F0470469074660780025431EDBB216
:1048B000FD2B13D8FFF7AAFE0546002800F0E18083
:1048C000836861795A789878237942EA002043EA2C
:1048D0000121FFF785FE08B90546D2E0237803F0F1
:1048E0008002D2B21AB1227A900740F0C98003F058
:1048F0004002D2B2002A00F0C18003F00C02082A64
:1049000000F0BE8039894FF6F672914200F2B8800D
:104910001DB12A79002A40F0B38003F00305B44B9F
:10492000012D0CBF01250725187800229B6811E096
:104930001E7C052E0BD1B3F88A608E4207D1D3F8C6
:10494000906014F805C0765DB44500F091800132A6
:10495000D2B2C0338242EBD10220FEF73DFF0028E5
:1049600000F08780D0F89030AF2203F81B2C3A89F2
:10497000DFF888E243F8187C0126A0F88A2002219B
:10498000002280F8881080F8982080F8992080F81C
:104990009A6080F89B6080F89C20C0F8A0E080F8C6
:1049A0009D601E7861F301061E7094F800E0F6B277
:1049B000CEF3810E6EF383061E7094F800E0F6B21B
:1049C000CEF3001E6EF3041606F0DF0662F38616C1
:1049D0001E7026781A78F60966F3C7121A702678C0
:1049E00006F01006F6B22EB13A69525D5A7080F8A0
:1049F0008C1038E0082280F88C20A2795A70E17877
:104A0000A27842EA01229A70120ADA702279617958
:104A100042EA01221A71120A5A7162789A713A694D
:104A2000525DDA71227802F08002D2B2DAB1217AD4
:104A300011F003010BD11A7A61F3010261F38702CD
:104A40001A7290F88C30013380F88C300BE090F8BB
:104A50008C20033280F88C20217A1A7A61F30102CB
:104A600066F387021A721830FEF744FF012000E057
:104A7000002080F00100C0B2BDE8F087012500E011
:104A80000025237803F08003DBB2002B00F02C819B
:104A900094F8089019F0030F00F02681544E97F80F
:104AA0000CA096F82430657A002B00F0258196F84A
:104AB0001880AAF10A0A5FFA8AFAB8F1000F04D046
:104AC000B8F1010F40F0188133E0B9F1010F40F067
:104AD00013819D4200F21081F28C924500F20C810C
:104AE00001325A43F06941460DF03CFC86F82C50E7
:104AF00086F81890AF2386F828313B8945463386DF
:104B0000637886F83230E278A37843EA0223B386EA
:104B10002379627943EA0223F386A37986F8383051
:104B2000E37986F82D8086F83930324B1B7A86F887
:104B30002931237A03F00302023A18BF0122002D23
:104B40000CBF002202F00102002A40F0D58013F0D1
:104B5000FC0F40F0D180264B93F82C20AA42C0F0E5
:104B6000CB80198E3A89914240F0C68093F832107A
:104B70006278914240F0C080A278E078998E42EA53
:104B80000022914240F0B88022796079D98E42EAC1
:104B90000022914240F0B08093F83810A2799142FF
:104BA00040F0AA8093F83910E279914240F0A48055
:104BB00093F82D20104B5B78D1188D4280F29C80A9
:104BC000B5FBF3F003FB10509542C0B2084A08D27F
:104BD000291A82F82D104FF0FF3111FA03F382F8F1
:104BE0002E30D369D18C3A6901FB053100230BE0EB
:104BF000881E0020D80F0020E81B0020813E4000C6
:104C0000D418A47ACC5401335345F9D13C490A6AEB
:104C1000535591F82D20AA420ED191F82C30394CE1
:104C20005B1B6478DBB2A34228BF23464FF0FF34FE
:104C300014FA03F381F82E3001238340304991F8B0
:104C40002E402343DBB2FF2B81F82E300AD191F89E
:104C50002C502C49501E4978AD1A8D42D4BF4519AD
:104C60004518EDB2264991F82C000138854209D14A
:104C7000FF2B03D10320FEF723FF36E00220FEF7CF
:104C80001FFF39E01F484478013C1219954201D0BA
:104C9000FF2B1DD10220FEF713FF194B93F82E2096
:104CA000FF2A29D1174A93F82D105278ED43511855
:104CB00083F82D1093F82C106D18EDB2954238BF83
:104CC0002A464FF0FF3111FA02F283F82E2013E04A
:104CD0000D480A22436B02FB0434037A1C305C4308
:104CE0008C6207F077FC07E035B13846AF21FFF75B
:104CF000E3FC0020BDE8F0870120BDE8F08700BF9D
:104D0000881E0020E81B0020D80F00202DE9F04F5E
:104D1000BB4FBC4DB7F8586095B0A6F58878D8F170
:104D2000000343EB0803B6F54C7F08BF43F00103D3
:104D3000A846002B00F0E48067E2D5F80890C02375
:104D4000C9EB040ABAFBF3FA5FFA8AFA03FB0AFA20
:104D5000A6F5C26CDCF1000242EB0C0209EB0A0B77
:104D6000B6F5A06F08BF42F001029BF81030DAB12F
:104D700003F0FE03042B0FD12A69DBF890302821C1
:104D80009B1AB3FBF1F3DBB201FB032322795978C1
:104D900012B95868FFF790FC04F10C0259F80A00A8
:104DA000A321FFF751F9A8E05B08032B00F2A880CC
:104DB000DFE803F00207944821795846FFF790F99D
:104DC0009EE09BF8113003F00F03012B40F0988018
:104DD000207CFEF7BDFF97F808909BF811302179F1
:104DE0008246A9EB131929B9FEF7C0FF0AFA09F99F
:104DF000C3051BE0A1F1CE0EDEF1000343EB0E0371
:104E0000F02908BF43F001034BB1DBF8000004F1C7
:104E10000C02FFF719F92046FEF73AFDF5E1FEF71F
:104E2000A5FF4FF47A7202FA09F9C30509EBD353CF
:104E3000CBF808309BF81130022262F303038BF8A1
:104E4000113047E09BF8113003F00F03012B57D1CD
:104E500095F8333195F83021013B9A4220D06A4BC6
:104E600095F8321193F801E0002316E0184641FA54
:104E700000FC01331CF0010F0FD0012313FA00F0E6
:104E800095F8313121EA0001D21885F8321185F800
:104E900030215E48FDF7EAFC32E0DAB27245E5D334
:104EA000207CFEF755FF9BF8113097F80890D5F855
:104EB0004C41A9EB131900FA09F9FEF757FFC00599
:104EC000D5F84C3109EBD050A0605A7C022161F337
:104ED00003025A744E4807F07DFB11E0D8F8102009
:104EE000DBF8903028219B1AB3FBF1F3DBB201FB16
:104EF000032359785868FFF7DFFB2046FEF7C8FC0C
:104F0000444807F00DFA044600287FF416AF7CE110
:104F1000B6F8584008F13C0007F002FA40F23F436F
:104F20009C4206D02B691B7803F00303012B40F051
:104F300065812C69227802F04001C9B269B1314B18
:104F4000D87893F804E093F800C08644F44540F321
:104F500055815B78834240F2518102F00C03042BAF
:104F600000F04C8151B102F00301022900F04681AA
:104F7000082B00F043810C2B00F0408102F020024E
:104F8000D2B2002A40F03A8195F80480B8F1010FBE
:104F90000DD0B8F1020F40F03181227812F00302F7
:104FA00003D0022A40F02A816BE00C2B06D0284661
:104FB000FFF776FC002800F02B811FE12989227A77
:104FC000154807F02AFA002800F018812B7B082BDF
:104FD00040F2148101238DF804306378A27843EA0B
:104FE0000223ADF80830288905F0CEFDB0B10323C7
:104FF0008DF81930D0E90023CDE90A2313E000BF72
:10500000D80F0020881E0020E81B0020C01F0020B1
:10501000F40F0020EC0F0020181000202B898DF8D1
:105020001980ADF820306A896846ADF83020E37900
:105030008DF83230A279637943EA0223ADF8343037
:10504000E378227943EA0223ADF836302B7B093B23
:10505000ADF838302B6909330F9300238DF84030B9
:10506000AF238DF841302B7F8DF842302B7D8DF8AA
:105070004330AB6911936B7D8DF84830FFF7F2FA3E
:10508000BCE0A94BC022D3F808801B7802FB038246
:10509000B1E0B8F8103023F0FE031B051B0DBB4236
:1050A00040F0A780D8F8001028890989D8F89030F6
:1050B000884240F09E80E079D979884240F099801A
:1050C000207994F805C0197993F805E040EA0C209E
:1050D00041EA0E21884240F08C80A07894F803C009
:1050E000997893F803E040EA0C2041EA0E218842C7
:1050F0007FD16078997988427BD1A1795B78994298
:1051000077D198F8103003F0FE03022B07D198F8FE
:105110001130032262F3030388F811302EE0062BCE
:1051200067D1814B617A93F83121914266D17F4AF0
:105130004FF0FF315278A07A91400143A17298F864
:105140001110032060F3030188F81110A17AFF29E0
:105150002AD193F833E193F83101441EC0EB0E0CD1
:105160009445D4BF6444A418E4B20EF1FF3E7445E4
:1051700083F8304107D14046FEF7EAFA4046002165
:10518000FEF7AEFF3AE0801811FA02F2347AD24309
:10519000C0B222F0010283F8310183F8354183F86F
:1051A000300183F832211EE0C943C9B283F83211BD
:1051B000002314E01C4641FA04FE01331EF0010FE7
:1051C0000DD0012212FA04F4574B21EA040193F89E
:1051D000312183F83211801883F8300102E0D8B20F
:1051E0009042E7D3504BD3F84C110868FEF78AFB86
:1051F00004E008F1C0089045FFF44BAF00232846B7
:1052000000F8243F2B6A984702E0494E40F20127FC
:10521000F56BDFF81C81002D7FF47AAEB8F85830BA
:1052200003F002039BB24BB1FBE02146414807F07B
:105230007DF82046A3210022FEF706FFD8F838406B
:10524000002CF2D1F2E0384BD3F84C316BB1204650
:10525000FEF7B4FA20B908E02468002C00F0E680DC
:105260002046FEF7ABFA0028F6D194F8286006F045
:105270008003DBB2002B51D12046FEF79FFA48B1E4
:10528000294BD3F85031002B48D006F00403DBB291
:10529000002B43D0238C5F2B05D906F00803DBB22B
:1052A000A025002B3DD0A57F25B12846FFF7AEF9FC
:1052B000002835D006F00406F6B256B12379022B49
:1052C00005D122894FF6F7739A4229D801E0012BC4
:1052D00026D094F80490A9F10203DBB2012B05D883
:1052E000237E0F33DBB20D2B1AD95FE1B9F1000F2A
:1052F00040F05C81002E00F05981A78B00F022FD68
:105300000646484602E0037B012B09D039462A466F
:105310003346FEF7E7F90028F5D147E1AA2500E07A
:10532000A625002658E000BF881E0020E81B0020AC
:10533000D80F0020101000202046FEF73FFA8146CB
:1053400028B10320FEF748FAA24E07462AE094F857
:10535000285005F00405EDB22DB10120FEF73CFA0E
:105360009C4E07462BE02846FEF736FA994E074634
:1053700033E00020FEF730FA974E074612E004F1C2
:10538000100005F0EBFF10B3008802232081237189
:105390002046FEF713FA814630B10320FEF71CFACF
:1053A0008E4E0746002518E094F8285005F00405B5
:1053B000EDB235B10120FEF70FFA884E07464D4693
:1053C0000BE02846FEF708FA844E074605E006463D
:1053D000A92501E00026A6253746D5F1010938BFE9
:1053E0004FF00009002F14BF002309F00103EBB9AF
:1053F0007B48214606F09AFFB9F1000F0CD03C60C3
:105400002046FEF7DBF910B13846FEF7A1F9204639
:105410003946B047054620B1204629460022FEF70E
:1054200013FED8F83840002C7FF40DAF6D4EB6F85F
:105430005830B3F5A06F26D0B3F5C26F2AD122E061
:1054400007FB04F6AB689A19117C032918D1527C2A
:1054500002F00F02A2F10400414241EB0001022AD6
:1054600014BF0A4641F0010252B19859A32100220B
:10547000FEF7EAFDA868861906F1A400FEF708FA0F
:105480000134E4B202E0584D0024C0272B78A34237
:10549000D6D864E040F23F42934260D158E0A3681E
:1054A000C02000FB0530038A23F0FE031B051B0D03
:1054B000BB424AD1037C03F0FE03A3F1020CDCF1F2
:1054C000000242EB0C02062B14BF134642F001030C
:1054D000002B3AD0437C13F0F00F33D003F00F02CF
:1054E000012A32D0012262F30303DBB2C3F30312B9
:1054F0000F3262F307134374B37A0133B372037C40
:1055000003F0FE03022B06D1183004F023FC3748C9
:1055100007F060F819E0062B17D194F83231D4F86F
:105520004C1123F0010384F8323194F8313184F8BE
:10553000303194F83531013B84F835310868FEF795
:10554000E1F902E0A721FEF7CBFD0135EDB203E062
:10555000254C002540F201472378AB429FD8214CCF
:10556000B4F85830B3F5A06F30D1A37A73BB15E00F
:105570002846FEF7D9FE4FF4C263A4F8583004F170
:10558000180006F0CDFE3046F36800F8105F98472B
:10559000A369DBB12846FEF759FC17E0A6693589F7
:1055A00025F00205ADB2358185B9E1E72379032BFA
:1055B0003FF610AF01A252F823F000BF395340006C
:1055C00073534000915340007F53400015B0BDE835
:1055D000F08F00BF333D4000713B40000539400073
:1055E00010100020D80F0020881E0020F40F00208B
:1055F00008B5084B4FF48872A3F8582000229A612E
:105600001A7483F85A20DA65FEF7BCFBBDE808403F
:1056100006F0A4B8D80F002019230371FEF75CBC74
:105620008A230371FEF758BCC5230371FEF754BCEF
:1056300010B5134B187B196900231A4606E028336E
:10564000CC1814F8284CB4B90132D2B28242F6D147
:105650000B4B19789A68002305E0107CC032C00714
:105660000BD40133DBB28B42F7D1054B187E0030EF
:1056700018BF012010BD012010BD012010BD00BFCA
:10568000881E002007B51A4B93F85A20197C134640
:105690000133DBB2072B88BF002331FA03F0C007C8
:1056A00010D501209840124A41401174114982F8E6
:1056B0005A3001EB8301684604220CF0CDFC009BBC
:1056C000984704E09A42E3D1094B83F85A20084BEB
:1056D0001B7C5BB101A8FBF743FF074B01A81A88AD
:1056E00092B242F020021A80FBF741FF0EBD00BFCC
:1056F000D80F0020902541004010002010B50CF07C
:10570000D3FE04460CF0D0FE2401C3B204F47F4063
:10571000184310BD0E4A92F84230052B13D002D820
:105720003BB1022B02E0142B0BD0162B0BD0002028
:10573000704792F8380040B10A288CBF0220082038
:10574000704708207047022070470820704700BF4C
:10575000281C002008B5FFF7DDFF05234343DBB21B
:1057600003EBC01080B208BD03220228134B1EDCDD
:10577000C2B2911DC9B2012901D8FB2217E002F182
:105780000801C9B2012901D8F92210E002F10A0189
:10579000C9B2012901D8F72209E00E32D2B2032A98
:1057A00001D8F42203E010F10E0F03DAEF2283F8A0
:1057B0004020704783F84000704700BF281C00203D
:1057C000134A92F84230052B1DD003D843B1022B67
:1057D00004D10DE0142B12D0162B12D000207047EC
:1057E00092F8380088B10A288CBF10201920704721
:1057F00092F83800002814BF10202820704732206B
:10580000704728207047102070473220704700BF33
:10581000281C002010B5FFF79DFF0446FFF7D0FFBE
:1058200044434FF47A73B4FBF3F4024B013483F82E
:10583000324010BD281C0020F8B52A4C0B2304F17F
:10584000400584F83830284B29460320E363FBF7F2
:1058500051FE94F94000FFF787FF012629460320F7
:105860000025FBF75AFE84F8416084F84250FFF7A8
:1058700071FFA4F84400FFF74DFF0527784384F833
:105880004600FFF747FF36232360A67184F84700E0
:1058900025716571A5602573FFF730FF4FF6FF7620
:1058A0004FF0FF324FF0FF33C4E9042360732683C7
:1058B000FFF724FF0423237703236377A3772023B1
:1058C000A076E776268484F8223084F8235084F882
:1058D0002450E68484F8305084F83150BDE8F84014
:1058E000FFF798BF281C002000F8FF0710B50446FA
:1058F000FFF766FF4FF470735C4360434FF47A73B5
:10590000B0FBF3F010BD000007B50378A3F140022F
:10591000432A00F2AF80DFE812F0B5004400E70050
:10592000E700E70048004D00E700E7005500590098
:105930005F006300E70067006E007600E7007A0012
:105940007F00E70083009400A400E70098009F0018
:10595000B500B500B500AD00AD00AD00AD00AD00C7
:10596000AD00AD00AD00AD00AD00AD00AD00AD00CF
:10597000AD00AD00AD00AD008E00AD00E700E7006A
:10598000E700E700E700E700E700E700E700E700DF
:10599000E700E700E700E700AD00A800B500AD00B4
:1059A0008A00027A524B5A7102E08268504B9A6028
:1059B00000209CE0037A342B9CBF4D4A137300F205
:1059C0009580F5E7027A4A4B5A73F1E74849D0E9E6
:1059D0000223C1E90423EBE7454B00891883E7E77D
:1059E000027A434B9A76E3E7037A052B9CBF404A41
:1059F00013777BD8DCE73E4B027AD97E914228BFF1
:105A00009A7773D3D4E73A4B00891884D0E7027AA7
:105A1000374B83F82320CBE7354B0089D884C7E781
:105A20000089FFF763FF02A941F8040D01E000F1CE
:105A3000080102203DE02E49D0E90223C1E90A23F2
:105A4000B6E7027A2A4B1A71B2E7037A072B9CBF9A
:105A5000274A53774AD8ABE7027A254B83F82220AE
:105A6000A6E7027A224BDA76A2E7027A204B83F885
:105A700031209DE7072B37D8DFE803F00604101E1E
:105A800027040404FB2032E0194B027AD96BD14081
:105A9000C90748BF83F8382023D427E0007A00F1F3
:105AA0002003DBB23F2B21D840B2FFF75DFE114946
:105AB0000320FBF732FD7BE7037A032B9CBF0C4AE4
:105AC00082F841307FF674AF10E0037A162B0DD8C0
:105AD0005AB201219140084A0A403AB1044A82F878
